{
  "contractName": "SupplyChain",
  "abi": [
    {
      "inputs": [],
      "payable": false,
      "stateMutability": "nonpayable",
      "type": "constructor"
    },
    {
      "anonymous": false,
      "inputs": [
        {
          "indexed": true,
          "internalType": "uint256",
          "name": "id",
          "type": "uint256"
        },
        {
          "indexed": false,
          "internalType": "string",
          "name": "name",
          "type": "string"
        },
        {
          "indexed": false,
          "internalType": "uint256",
          "name": "quantity",
          "type": "uint256"
        }
      ],
      "name": "MedicineAdded",
      "type": "event"
    },
    {
      "anonymous": false,
      "inputs": [
        {
          "indexed": true,
          "internalType": "uint256",
          "name": "medicineID",
          "type": "uint256"
        },
        {
          "indexed": false,
          "internalType": "enum SupplyChain.STAGE",
          "name": "stage",
          "type": "uint8"
        }
      ],
      "name": "StageChanged",
      "type": "event"
    },
    {
      "anonymous": false,
      "inputs": [
        {
          "indexed": false,
          "internalType": "string",
          "name": "role",
          "type": "string"
        },
        {
          "indexed": true,
          "internalType": "uint256",
          "name": "id",
          "type": "uint256"
        },
        {
          "indexed": false,
          "internalType": "address",
          "name": "addr",
          "type": "address"
        },
        {
          "indexed": false,
          "internalType": "string",
          "name": "name",
          "type": "string"
        }
      ],
      "name": "SupplierAdded",
      "type": "event"
    },
    {
      "constant": true,
      "inputs": [
        {
          "internalType": "uint256",
          "name": "",
          "type": "uint256"
        }
      ],
      "name": "DIS",
      "outputs": [
        {
          "internalType": "address",
          "name": "addr",
          "type": "address"
        },
        {
          "internalType": "uint256",
          "name": "id",
          "type": "uint256"
        },
        {
          "internalType": "string",
          "name": "name",
          "type": "string"
        },
        {
          "internalType": "string",
          "name": "place",
          "type": "string"
        }
      ],
      "payable": false,
      "stateMutability": "view",
      "type": "function"
    },
    {
      "constant": true,
      "inputs": [
        {
          "internalType": "address",
          "name": "",
          "type": "address"
        }
      ],
      "name": "DISMap",
      "outputs": [
        {
          "internalType": "uint256",
          "name": "",
          "type": "uint256"
        }
      ],
      "payable": false,
      "stateMutability": "view",
      "type": "function"
    },
    {
      "constant": true,
      "inputs": [
        {
          "internalType": "uint256",
          "name": "",
          "type": "uint256"
        }
      ],
      "name": "MAN",
      "outputs": [
        {
          "internalType": "address",
          "name": "addr",
          "type": "address"
        },
        {
          "internalType": "uint256",
          "name": "id",
          "type": "uint256"
        },
        {
          "internalType": "string",
          "name": "name",
          "type": "string"
        },
        {
          "internalType": "string",
          "name": "place",
          "type": "string"
        }
      ],
      "payable": false,
      "stateMutability": "view",
      "type": "function"
    },
    {
      "constant": true,
      "inputs": [
        {
          "internalType": "address",
          "name": "",
          "type": "address"
        }
      ],
      "name": "MANMap",
      "outputs": [
        {
          "internalType": "uint256",
          "name": "",
          "type": "uint256"
        }
      ],
      "payable": false,
      "stateMutability": "view",
      "type": "function"
    },
    {
      "constant": true,
      "inputs": [
        {
          "internalType": "uint256",
          "name": "",
          "type": "uint256"
        }
      ],
      "name": "MedicineStock",
      "outputs": [
        {
          "internalType": "uint256",
          "name": "id",
          "type": "uint256"
        },
        {
          "internalType": "string",
          "name": "name",
          "type": "string"
        },
        {
          "internalType": "string",
          "name": "description",
          "type": "string"
        },
        {
          "internalType": "string",
          "name": "compositions",
          "type": "string"
        },
        {
          "internalType": "uint256",
          "name": "quantity",
          "type": "uint256"
        },
        {
          "internalType": "uint256",
          "name": "RMSid",
          "type": "uint256"
        },
        {
          "internalType": "uint256",
          "name": "MANid",
          "type": "uint256"
        },
        {
          "internalType": "uint256",
          "name": "DISid",
          "type": "uint256"
        },
        {
          "internalType": "uint256",
          "name": "RETid",
          "type": "uint256"
        },
        {
          "internalType": "enum SupplyChain.STAGE",
          "name": "stage",
          "type": "uint8"
        }
      ],
      "payable": false,
      "stateMutability": "view",
      "type": "function"
    },
    {
      "constant": true,
      "inputs": [],
      "name": "Owner",
      "outputs": [
        {
          "internalType": "address",
          "name": "",
          "type": "address"
        }
      ],
      "payable": false,
      "stateMutability": "view",
      "type": "function"
    },
    {
      "constant": true,
      "inputs": [
        {
          "internalType": "uint256",
          "name": "",
          "type": "uint256"
        }
      ],
      "name": "RET",
      "outputs": [
        {
          "internalType": "address",
          "name": "addr",
          "type": "address"
        },
        {
          "internalType": "uint256",
          "name": "id",
          "type": "uint256"
        },
        {
          "internalType": "string",
          "name": "name",
          "type": "string"
        },
        {
          "internalType": "string",
          "name": "place",
          "type": "string"
        }
      ],
      "payable": false,
      "stateMutability": "view",
      "type": "function"
    },
    {
      "constant": true,
      "inputs": [
        {
          "internalType": "address",
          "name": "",
          "type": "address"
        }
      ],
      "name": "RETMap",
      "outputs": [
        {
          "internalType": "uint256",
          "name": "",
          "type": "uint256"
        }
      ],
      "payable": false,
      "stateMutability": "view",
      "type": "function"
    },
    {
      "constant": true,
      "inputs": [
        {
          "internalType": "uint256",
          "name": "",
          "type": "uint256"
        }
      ],
      "name": "RMS",
      "outputs": [
        {
          "internalType": "address",
          "name": "addr",
          "type": "address"
        },
        {
          "internalType": "uint256",
          "name": "id",
          "type": "uint256"
        },
        {
          "internalType": "string",
          "name": "name",
          "type": "string"
        },
        {
          "internalType": "string",
          "name": "place",
          "type": "string"
        }
      ],
      "payable": false,
      "stateMutability": "view",
      "type": "function"
    },
    {
      "constant": true,
      "inputs": [
        {
          "internalType": "address",
          "name": "",
          "type": "address"
        }
      ],
      "name": "RMSMap",
      "outputs": [
        {
          "internalType": "uint256",
          "name": "",
          "type": "uint256"
        }
      ],
      "payable": false,
      "stateMutability": "view",
      "type": "function"
    },
    {
      "constant": true,
      "inputs": [],
      "name": "disCtr",
      "outputs": [
        {
          "internalType": "uint256",
          "name": "",
          "type": "uint256"
        }
      ],
      "payable": false,
      "stateMutability": "view",
      "type": "function"
    },
    {
      "constant": true,
      "inputs": [],
      "name": "manCtr",
      "outputs": [
        {
          "internalType": "uint256",
          "name": "",
          "type": "uint256"
        }
      ],
      "payable": false,
      "stateMutability": "view",
      "type": "function"
    },
    {
      "constant": true,
      "inputs": [],
      "name": "medicineCtr",
      "outputs": [
        {
          "internalType": "uint256",
          "name": "",
          "type": "uint256"
        }
      ],
      "payable": false,
      "stateMutability": "view",
      "type": "function"
    },
    {
      "constant": true,
      "inputs": [],
      "name": "retCtr",
      "outputs": [
        {
          "internalType": "uint256",
          "name": "",
          "type": "uint256"
        }
      ],
      "payable": false,
      "stateMutability": "view",
      "type": "function"
    },
    {
      "constant": true,
      "inputs": [],
      "name": "rmsCtr",
      "outputs": [
        {
          "internalType": "uint256",
          "name": "",
          "type": "uint256"
        }
      ],
      "payable": false,
      "stateMutability": "view",
      "type": "function"
    },
    {
      "constant": true,
      "inputs": [
        {
          "internalType": "uint256",
          "name": "_medicineID",
          "type": "uint256"
        }
      ],
      "name": "showStage",
      "outputs": [
        {
          "internalType": "string",
          "name": "",
          "type": "string"
        }
      ],
      "payable": false,
      "stateMutability": "view",
      "type": "function"
    },
    {
      "constant": false,
      "inputs": [
        {
          "internalType": "address",
          "name": "_address",
          "type": "address"
        },
        {
          "internalType": "string",
          "name": "_name",
          "type": "string"
        },
        {
          "internalType": "string",
          "name": "_place",
          "type": "string"
        }
      ],
      "name": "addRMS",
      "outputs": [],
      "payable": false,
      "stateMutability": "nonpayable",
      "type": "function"
    },
    {
      "constant": false,
      "inputs": [
        {
          "internalType": "address",
          "name": "_address",
          "type": "address"
        },
        {
          "internalType": "string",
          "name": "_name",
          "type": "string"
        },
        {
          "internalType": "string",
          "name": "_place",
          "type": "string"
        }
      ],
      "name": "addManufacturer",
      "outputs": [],
      "payable": false,
      "stateMutability": "nonpayable",
      "type": "function"
    },
    {
      "constant": false,
      "inputs": [
        {
          "internalType": "address",
          "name": "_address",
          "type": "address"
        },
        {
          "internalType": "string",
          "name": "_name",
          "type": "string"
        },
        {
          "internalType": "string",
          "name": "_place",
          "type": "string"
        }
      ],
      "name": "addDistributor",
      "outputs": [],
      "payable": false,
      "stateMutability": "nonpayable",
      "type": "function"
    },
    {
      "constant": false,
      "inputs": [
        {
          "internalType": "address",
          "name": "_address",
          "type": "address"
        },
        {
          "internalType": "string",
          "name": "_name",
          "type": "string"
        },
        {
          "internalType": "string",
          "name": "_place",
          "type": "string"
        }
      ],
      "name": "addRetailer",
      "outputs": [],
      "payable": false,
      "stateMutability": "nonpayable",
      "type": "function"
    },
    {
      "constant": false,
      "inputs": [
        {
          "internalType": "uint256",
          "name": "_medicineID",
          "type": "uint256"
        }
      ],
      "name": "RMSsupply",
      "outputs": [],
      "payable": false,
      "stateMutability": "nonpayable",
      "type": "function"
    },
    {
      "constant": false,
      "inputs": [
        {
          "internalType": "uint256",
          "name": "_medicineID",
          "type": "uint256"
        }
      ],
      "name": "Manufacturing",
      "outputs": [],
      "payable": false,
      "stateMutability": "nonpayable",
      "type": "function"
    },
    {
      "constant": false,
      "inputs": [
        {
          "internalType": "uint256",
          "name": "_medicineID",
          "type": "uint256"
        }
      ],
      "name": "Distribute",
      "outputs": [],
      "payable": false,
      "stateMutability": "nonpayable",
      "type": "function"
    },
    {
      "constant": false,
      "inputs": [
        {
          "internalType": "uint256",
          "name": "_medicineID",
          "type": "uint256"
        }
      ],
      "name": "Retail",
      "outputs": [],
      "payable": false,
      "stateMutability": "nonpayable",
      "type": "function"
    },
    {
      "constant": false,
      "inputs": [
        {
          "internalType": "uint256",
          "name": "_medicineID",
          "type": "uint256"
        }
      ],
      "name": "sold",
      "outputs": [],
      "payable": false,
      "stateMutability": "nonpayable",
      "type": "function"
    },
    {
      "constant": false,
      "inputs": [
        {
          "internalType": "string",
          "name": "_name",
          "type": "string"
        },
        {
          "internalType": "string",
          "name": "_description",
          "type": "string"
        },
        {
          "internalType": "string",
          "name": "_composition",
          "type": "string"
        },
        {
          "internalType": "uint256",
          "name": "_quantity",
          "type": "uint256"
        }
      ],
      "name": "addMedicine",
      "outputs": [],
      "payable": false,
      "stateMutability": "nonpayable",
      "type": "function"
    }
  ],
  "bytecode": "0x608060405234801561001057600080fd5b50336000806101000a81548173ffffffffffffffffffffffffffffffffffffffff021916908373ffffffffffffffffffffffffffffffffffffffff160217905550613124806100606000396000f3fe608060405234801561001057600080fd5b506004361061018e5760003560e01c806386c18275116100de578063b4446e6011610097578063dd28639811610071578063dd2863981461103d578063e101a2e01461105b578063eb1a06b514611102578063eef5cb40146112c05761018e565b8063b4446e6014610e4e578063b4a99a4e14610ea6578063cc40306914610ef05761018e565b806386c1827514610b5b5780639c03facb14610b895780639d53c0e114610bb7578063a48d335a14610c0f578063a95f29d914610c3d578063abe4a32214610c5b5761018e565b80633d753a1c1161014b57806359bf286f1161012557806359bf286f1461070c5780636a992c9f146108595780637e43d94d146109cb578063857ddb04146109e95761018e565b80633d753a1c14610692578063438e9c4d146106c05780634def474a146106de5761018e565b806305a0759b146101935780632a4af440146101eb5780632b0187ac1461035d5780632b70b08d146104aa5780632bdb2e6b1461061c5780633aa20f341461063a575b600080fd5b6101d5600480360360208110156101a957600080fd5b81019080803573ffffffffffffffffffffffffffffffffffffffff16906020019092919050505061140d565b6040518082815260200191505060405180910390f35b61035b6004803603606081101561020157600080fd5b81019080803573ffffffffffffffffffffffffffffffffffffffff1690602001909291908035906020019064010000000081111561023e57600080fd5b82018360208201111561025057600080fd5b8035906020019184600183028401116401000000008311171561027257600080fd5b91908080601f016020809104026020016040519081016040528093929190818152602001838380828437600081840152601f19601f820116905080830192505050505050509192919290803590602001906401000000008111156102d557600080fd5b8201836020820111156102e757600080fd5b8035906020019184600183028401116401000000008311171561030957600080fd5b91908080601f016020809104026020016040519081016040528093929190818152602001838380828437600081840152601f19601f820116905080830192505050505050509192919290505050611425565b005b6103896004803603602081101561037357600080fd5b8101908080359060200190929190505050611529565b604051808573ffffffffffffffffffffffffffffffffffffffff1673ffffffffffffffffffffffffffffffffffffffff1681526020018481526020018060200180602001838103835285818151815260200191508051906020019080838360005b838110156104055780820151818401526020810190506103ea565b50505050905090810190601f1680156104325780820380516001836020036101000a031916815260200191505b50838103825284818151815260200191508051906020019080838360005b8381101561046b578082015181840152602081019050610450565b50505050905090810190601f1680156104985780820380516001836020036101000a031916815260200191505b50965050505050505060405180910390f35b61061a600480360360608110156104c057600080fd5b81019080803573ffffffffffffffffffffffffffffffffffffffff169060200190929190803590602001906401000000008111156104fd57600080fd5b82018360208201111561050f57600080fd5b8035906020019184600183028401116401000000008311171561053157600080fd5b91908080601f016020809104026020016040519081016040528093929190818152602001838380828437600081840152601f19601f8201169050808301925050505050505091929192908035906020019064010000000081111561059457600080fd5b8201836020820111156105a657600080fd5b803590602001918460018302840111640100000000831117156105c857600080fd5b91908080601f016020809104026020016040519081016040528093929190818152602001838380828437600081840152601f19601f8201169050808301925050505050505091929192905050506116a9565b005b6106246117ad565b6040518082815260200191505060405180910390f35b61067c6004803603602081101561065057600080fd5b81019080803573ffffffffffffffffffffffffffffffffffffffff1690602001909291905050506117b3565b6040518082815260200191505060405180910390f35b6106be600480360360208110156106a857600080fd5b81019080803590602001909291905050506117cb565b005b6106c8611837565b6040518082815260200191505060405180910390f35b61070a600480360360208110156106f457600080fd5b810190808035906020019092919050505061183d565b005b6107386004803603602081101561072257600080fd5b81019080803590602001909291905050506118a9565b604051808573ffffffffffffffffffffffffffffffffffffffff1673ffffffffffffffffffffffffffffffffffffffff1681526020018481526020018060200180602001838103835285818151815260200191508051906020019080838360005b838110156107b4578082015181840152602081019050610799565b50505050905090810190601f1680156107e15780820380516001836020036101000a031916815260200191505b50838103825284818151815260200191508051906020019080838360005b8381101561081a5780820151818401526020810190506107ff565b50505050905090810190601f1680156108475780820380516001836020036101000a031916815260200191505b50965050505050505060405180910390f35b6109c96004803603606081101561086f57600080fd5b81019080803573ffffffffffffffffffffffffffffffffffffffff169060200190929190803590602001906401000000008111156108ac57600080fd5b8201836020820111156108be57600080fd5b803590602001918460018302840111640100000000831117156108e057600080fd5b91908080601f016020809104026020016040519081016040528093929190818152602001838380828437600081840152601f19601f8201169050808301925050505050505091929192908035906020019064010000000081111561094357600080fd5b82018360208201111561095557600080fd5b8035906020019184600183028401116401000000008311171561097757600080fd5b91908080601f016020809104026020016040519081016040528093929190818152602001838380828437600081840152601f19601f820116905080830192505050505050509192919290505050611a29565b005b6109d3611b2d565b6040518082815260200191505060405180910390f35b610b59600480360360608110156109ff57600080fd5b81019080803573ffffffffffffffffffffffffffffffffffffffff16906020019092919080359060200190640100000000811115610a3c57600080fd5b820183602082011115610a4e57600080fd5b80359060200191846001830284011164010000000083111715610a7057600080fd5b91908080601f016020809104026020016040519081016040528093929190818152602001838380828437600081840152601f19601f82011690508083019250505050505050919291929080359060200190640100000000811115610ad357600080fd5b820183602082011115610ae557600080fd5b80359060200191846001830284011164010000000083111715610b0757600080fd5b91908080601f016020809104026020016040519081016040528093929190818152602001838380828437600081840152601f19601f820116905080830192505050505050509192919290505050611b33565b005b610b8760048036036020811015610b7157600080fd5b8101908080359060200190929190505050611c37565b005b610bb560048036036020811015610b9f57600080fd5b8101908080359060200190929190505050611ca3565b005b610bf960048036036020811015610bcd57600080fd5b81019080803573ffffffffffffffffffffffffffffffffffffffff169060200190929190505050611efd565b6040518082815260200191505060405180910390f35b610c3b60048036036020811015610c2557600080fd5b8101908080359060200190929190505050611f15565b005b610c45611f81565b6040518082815260200191505060405180910390f35b610e4c60048036036080811015610c7157600080fd5b8101908080359060200190640100000000811115610c8e57600080fd5b820183602082011115610ca057600080fd5b80359060200191846001830284011164010000000083111715610cc257600080fd5b91908080601f016020809104026020016040519081016040528093929190818152602001838380828437600081840152601f19601f82011690508083019250505050505050919291929080359060200190640100000000811115610d2557600080fd5b820183602082011115610d3757600080fd5b80359060200191846001830284011164010000000083111715610d5957600080fd5b91908080601f016020809104026020016040519081016040528093929190818152602001838380828437600081840152601f19601f82011690508083019250505050505050919291929080359060200190640100000000811115610dbc57600080fd5b820183602082011115610dce57600080fd5b80359060200191846001830284011164010000000083111715610df057600080fd5b91908080601f016020809104026020016040519081016040528093929190818152602001838380828437600081840152601f19601f82011690508083019250505050505050919291929080359060200190929190505050611f87565b005b610e9060048036036020811015610e6457600080fd5b81019080803573ffffffffffffffffffffffffffffffffffffffff16906020019092919050505061229e565b6040518082815260200191505060405180910390f35b610eae6122b6565b604051808273ffffffffffffffffffffffffffffffffffffffff1673ffffffffffffffffffffffffffffffffffffffff16815260200191505060405180910390f35b610f1c60048036036020811015610f0657600080fd5b81019080803590602001909291905050506122db565b604051808573ffffffffffffffffffffffffffffffffffffffff1673ffffffffffffffffffffffffffffffffffffffff1681526020018481526020018060200180602001838103835285818151815260200191508051906020019080838360005b83811015610f98578082015181840152602081019050610f7d565b50505050905090810190601f168015610fc55780820380516001836020036101000a031916815260200191505b50838103825284818151815260200191508051906020019080838360005b83811015610ffe578082015181840152602081019050610fe3565b50505050905090810190601f16801561102b5780820380516001836020036101000a031916815260200191505b50965050505050505060405180910390f35b61104561245b565b6040518082815260200191505060405180910390f35b6110876004803603602081101561107157600080fd5b8101908080359060200190929190505050612461565b6040518080602001828103825283818151815260200191508051906020019080838360005b838110156110c75780820151818401526020810190506110ac565b50505050905090810190601f1680156110f45780820380516001836020036101000a031916815260200191505b509250505060405180910390f35b61112e6004803603602081101561111857600080fd5b810190808035906020019092919050505061277b565b604051808b81526020018060200180602001806020018a815260200189815260200188815260200187815260200186815260200185600581111561116e57fe5b60ff16815260200184810384528d818151815260200191508051906020019080838360005b838110156111ae578082015181840152602081019050611193565b50505050905090810190601f1680156111db5780820380516001836020036101000a031916815260200191505b5084810383528c818151815260200191508051906020019080838360005b838110156112145780820151818401526020810190506111f9565b50505050905090810190601f1680156112415780820380516001836020036101000a031916815260200191505b5084810382528b818151815260200191508051906020019080838360005b8381101561127a57808201518184015260208101905061125f565b50505050905090810190601f1680156112a75780820380516001836020036101000a031916815260200191505b509d505050505050505050505050505060405180910390f35b6112ec600480360360208110156112d657600080fd5b81019080803590602001909291905050506129a4565b604051808573ffffffffffffffffffffffffffffffffffffffff1673ffffffffffffffffffffffffffffffffffffffff1681526020018481526020018060200180602001838103835285818151815260200191508051906020019080838360005b8381101561136857808201518184015260208101905061134d565b50505050905090810190601f1680156113955780820380516001836020036101000a031916815260200191505b50838103825284818151815260200191508051906020019080838360005b838110156113ce5780820151818401526020810190506113b3565b50505050905090810190601f1680156113fb5780820380516001836020036101000a031916815260200191505b50965050505050505060405180910390f35b600c6020528060005260406000206000915090505481565b6000809054906101000a900473ffffffffffffffffffffffffffffffffffffffff1673ffffffffffffffffffffffffffffffffffffffff163373ffffffffffffffffffffffffffffffffffffffff16146114ca576040517f08c379a000000000000000000000000000000000000000000000000000000000815260040180806020018281038252602b81526020018061309c602b913960400191505060405180910390fd5b6115126040518060400160405280600b81526020017f4469737472696275746f720000000000000000000000000000000000000000008152506009600d600454878787612b24565b600460008154809291906001019190505550505050565b60096020528060005260406000206000915090508060000160009054906101000a900473ffffffffffffffffffffffffffffffffffffffff1690806001015490806002018054600181600116156101000203166002900480601f0160208091040260200160405190810160405280929190818152602001828054600181600116156101000203166002900480156116015780601f106115d657610100808354040283529160200191611601565b820191906000526020600020905b8154815290600101906020018083116115e457829003601f168201915b505050505090806003018054600181600116156101000203166002900480601f01602080910402602001604051908101604052809291908181526020018280546001816001161561010002031660029004801561169f5780601f106116745761010080835404028352916020019161169f565b820191906000526020600020905b81548152906001019060200180831161168257829003601f168201915b5050505050905084565b6000809054906101000a900473ffffffffffffffffffffffffffffffffffffffff1673ffffffffffffffffffffffffffffffffffffffff163373ffffffffffffffffffffffffffffffffffffffff161461174e576040517f08c379a000000000000000000000000000000000000000000000000000000000815260040180806020018281038252602b81526020018061309c602b913960400191505060405180910390fd5b6117966040518060400160405280600381526020017f524d5300000000000000000000000000000000000000000000000000000000008152506007600b600254878787612b24565b600260008154809291906001019190505550505050565b60045481565b600d6020528060005260406000206000915090505481565b6117da81600e60036004612d8d565b600e60003373ffffffffffffffffffffffffffffffffffffffff1673ffffffffffffffffffffffffffffffffffffffff16815260200190815260200160002054600660008381526020019081526020016000206008018190555050565b60035481565b61184c81600d60026003612d8d565b600d60003373ffffffffffffffffffffffffffffffffffffffff1673ffffffffffffffffffffffffffffffffffffffff16815260200190815260200160002054600660008381526020019081526020016000206007018190555050565b600a6020528060005260406000206000915090508060000160009054906101000a900473ffffffffffffffffffffffffffffffffffffffff1690806001015490806002018054600181600116156101000203166002900480601f0160208091040260200160405190810160405280929190818152602001828054600181600116156101000203166002900480156119815780601f1061195657610100808354040283529160200191611981565b820191906000526020600020905b81548152906001019060200180831161196457829003601f168201915b505050505090806003018054600181600116156101000203166002900480601f016020809104026020016040519081016040528092919081815260200182805460018160011615610100020316600290048015611a1f5780601f106119f457610100808354040283529160200191611a1f565b820191906000526020600020905b815481529060010190602001808311611a0257829003601f168201915b5050505050905084565b6000809054906101000a900473ffffffffffffffffffffffffffffffffffffffff1673ffffffffffffffffffffffffffffffffffffffff163373ffffffffffffffffffffffffffffffffffffffff1614611ace576040517f08c379a000000000000000000000000000000000000000000000000000000000815260040180806020018281038252602b81526020018061309c602b913960400191505060405180910390fd5b611b166040518060400160405280600c81526020017f4d616e75666163747572657200000000000000000000000000000000000000008152506008600c600354878787612b24565b600360008154809291906001019190505550505050565b60055481565b6000809054906101000a900473ffffffffffffffffffffffffffffffffffffffff1673ffffffffffffffffffffffffffffffffffffffff163373ffffffffffffffffffffffffffffffffffffffff1614611bd8576040517f08c379a000000000000000000000000000000000000000000000000000000000815260040180806020018281038252602b81526020018061309c602b913960400191505060405180910390fd5b611c206040518060400160405280600881526020017f52657461696c6572000000000000000000000000000000000000000000000000815250600a600e600554878787612b24565b600560008154809291906001019190505550505050565b611c4681600b60006001612d8d565b600b60003373ffffffffffffffffffffffffffffffffffffffff1673ffffffffffffffffffffffffffffffffffffffff16815260200190815260200160002054600660008381526020019081526020016000206005018190555050565b6000809054906101000a900473ffffffffffffffffffffffffffffffffffffffff1673ffffffffffffffffffffffffffffffffffffffff163373ffffffffffffffffffffffffffffffffffffffff1614611d48576040517f08c379a000000000000000000000000000000000000000000000000000000000815260040180806020018281038252602b81526020018061309c602b913960400191505060405180910390fd5b600081118015611d5a57506001548111155b611dcc576040517f08c379a00000000000000000000000000000000000000000000000000000000081526004018080602001828103825260138152602001807f496e76616c6964206d65646963696e652049440000000000000000000000000081525060200191505060405180910390fd5b60046005811115611dd957fe5b6006600083815260200190815260200160002060090160009054906101000a900460ff166005811115611e0857fe5b14611e7b576040517f08c379a000000000000000000000000000000000000000000000000000000000815260040180806020018281038252600d8152602001807f496e76616c69642053746167650000000000000000000000000000000000000081525060200191505060405180910390fd5b60056006600083815260200190815260200160002060090160006101000a81548160ff02191690836005811115611eae57fe5b0217905550807fdf37221aaffab5daec18329c74e9de71f26727289dfefd6e144987965be79ef3600560405180826005811115611ee757fe5b60ff16815260200191505060405180910390a250565b600e6020528060005260406000206000915090505481565b611f2481600c60016002612d8d565b600c60003373ffffffffffffffffffffffffffffffffffffffff1673ffffffffffffffffffffffffffffffffffffffff16815260200190815260200160002054600660008381526020019081526020016000206006018190555050565b60015481565b6000809054906101000a900473ffffffffffffffffffffffffffffffffffffffff1673ffffffffffffffffffffffffffffffffffffffff163373ffffffffffffffffffffffffffffffffffffffff161461202c576040517f08c379a000000000000000000000000000000000000000000000000000000000815260040180806020018281038252602b81526020018061309c602b913960400191505060405180910390fd5b600060025411801561204057506000600354115b801561204e57506000600454115b801561205c57506000600554115b6120b1576040517f08c379a00000000000000000000000000000000000000000000000000000000081526004018080602001828103825260298152602001806130c76029913960400191505060405180910390fd5b6001600081548092919060010191905055506040518061014001604052806001548152602001858152602001848152602001838152602001828152602001600081526020016000815260200160008152602001600081526020016000600581111561211857fe5b815250600660006001548152602001908152602001600020600082015181600001556020820151816001019080519060200190612156929190612ff6565b506040820151816002019080519060200190612173929190612ff6565b506060820151816003019080519060200190612190929190612ff6565b506080820151816004015560a0820151816005015560c0820151816006015560e0820151816007015561010082015181600801556101208201518160090160006101000a81548160ff021916908360058111156121e957fe5b02179055509050506001547fd19ed2997779bdd7c0c657fd2a1bbcf4e3f642a49b129045326169d1f418f37585836040518080602001838152602001828103825284818151815260200191508051906020019080838360005b8381101561225d578082015181840152602081019050612242565b50505050905090810190601f16801561228a5780820380516001836020036101000a031916815260200191505b50935050505060405180910390a250505050565b600b6020528060005260406000206000915090505481565b6000809054906101000a900473ffffffffffffffffffffffffffffffffffffffff1681565b60086020528060005260406000206000915090508060000160009054906101000a900473ffffffffffffffffffffffffffffffffffffffff1690806001015490806002018054600181600116156101000203166002900480601f0160208091040260200160405190810160405280929190818152602001828054600181600116156101000203166002900480156123b35780601f10612388576101008083540402835291602001916123b3565b820191906000526020600020905b81548152906001019060200180831161239657829003601f168201915b505050505090806003018054600181600116156101000203166002900480601f0160208091040260200160405190810160405280929190818152602001828054600181600116156101000203166002900480156124515780601f1061242657610100808354040283529160200191612451565b820191906000526020600020905b81548152906001019060200180831161243457829003601f168201915b5050505050905084565b60025481565b606060008211801561247557506001548211155b6124e7576040517f08c379a00000000000000000000000000000000000000000000000000000000081526004018080602001828103825260138152602001807f496e76616c6964206d65646963696e652049440000000000000000000000000081525060200191505060405180910390fd5b60006006600084815260200190815260200160002060090160009054906101000a900460ff1690506000600581111561251c57fe5b81600581111561252857fe5b141561256c576040518060400160405280601081526020017f4d65646963696e65204f72646572656400000000000000000000000000000000815250915050612776565b6001600581111561257957fe5b81600581111561258557fe5b14156125c9576040518060400160405280601581526020017f526177204d6174657269616c20537570706c6965640000000000000000000000815250915050612776565b600260058111156125d657fe5b8160058111156125e257fe5b1415612626576040518060400160405280600d81526020017f4d616e75666163747572696e6700000000000000000000000000000000000000815250915050612776565b6003600581111561263357fe5b81600581111561263f57fe5b1415612683576040518060400160405280600c81526020017f446973747269627574696f6e0000000000000000000000000000000000000000815250915050612776565b6004600581111561269057fe5b81600581111561269c57fe5b14156126e0576040518060400160405280600681526020017f52657461696c0000000000000000000000000000000000000000000000000000815250915050612776565b6005808111156126ec57fe5b8160058111156126f857fe5b141561273c576040518060400160405280600d81526020017f4d65646963696e6520536f6c6400000000000000000000000000000000000000815250915050612776565b6040518060400160405280600d81526020017f556e6b6e6f776e205374616765000000000000000000000000000000000000008152509150505b919050565b6006602052806000526040600020600091509050806000015490806001018054600181600116156101000203166002900480601f01602080910402602001604051908101604052809291908181526020018280546001816001161561010002031660029004801561282d5780601f106128025761010080835404028352916020019161282d565b820191906000526020600020905b81548152906001019060200180831161281057829003601f168201915b505050505090806002018054600181600116156101000203166002900480601f0160208091040260200160405190810160405280929190818152602001828054600181600116156101000203166002900480156128cb5780601f106128a0576101008083540402835291602001916128cb565b820191906000526020600020905b8154815290600101906020018083116128ae57829003601f168201915b505050505090806003018054600181600116156101000203166002900480601f0160208091040260200160405190810160405280929190818152602001828054600181600116156101000203166002900480156129695780601f1061293e57610100808354040283529160200191612969565b820191906000526020600020905b81548152906001019060200180831161294c57829003601f168201915b5050505050908060040154908060050154908060060154908060070154908060080154908060090160009054906101000a900460ff1690508a565b60076020528060005260406000206000915090508060000160009054906101000a900473ffffffffffffffffffffffffffffffffffffffff1690806001015490806002018054600181600116156101000203166002900480601f016020809104026020016040519081016040528092919081815260200182805460018160011615610100020316600290048015612a7c5780601f10612a5157610100808354040283529160200191612a7c565b820191906000526020600020905b815481529060010190602001808311612a5f57829003601f168201915b505050505090806003018054600181600116156101000203166002900480601f016020809104026020016040519081016040528092919081815260200182805460018160011615610100020316600290048015612b1a5780601f10612aef57610100808354040283529160200191612b1a565b820191906000526020600020905b815481529060010190602001808311612afd57829003601f168201915b5050505050905084565b838060010194505060405180608001604052808473ffffffffffffffffffffffffffffffffffffffff1681526020018581526020018381526020018281525086600086815260200190815260200160002060008201518160000160006101000a81548173ffffffffffffffffffffffffffffffffffffffff021916908373ffffffffffffffffffffffffffffffffffffffff160217905550602082015181600101556040820151816002019080519060200190612be2929190612ff6565b506060820151816003019080519060200190612bff929190612ff6565b50905050838560008573ffffffffffffffffffffffffffffffffffffffff1673ffffffffffffffffffffffffffffffffffffffff16815260200190815260200160002081905550837f10ea07ff91bdef196a5f7deb8b49b20fa946bd1dd3160ae081bc9fe39eeba75f88858560405180806020018473ffffffffffffffffffffffffffffffffffffffff1673ffffffffffffffffffffffffffffffffffffffff16815260200180602001838103835286818151815260200191508051906020019080838360005b83811015612ce1578082015181840152602081019050612cc6565b50505050905090810190601f168015612d0e5780820380516001836020036101000a031916815260200191505b50838103825284818151815260200191508051906020019080838360005b83811015612d47578082015181840152602081019050612d2c565b50505050905090810190601f168015612d745780820380516001836020036101000a031916815260200191505b509550505050505060405180910390a250505050505050565b600084118015612d9f57506001548411155b612e11576040517f08c379a00000000000000000000000000000000000000000000000000000000081526004018080602001828103825260138152602001807f496e76616c6964206d65646963696e652049440000000000000000000000000081525060200191505060405180910390fd5b60008360003373ffffffffffffffffffffffffffffffffffffffff1673ffffffffffffffffffffffffffffffffffffffff1681526020019081526020016000205411612ec5576040517f08c379a00000000000000000000000000000000000000000000000000000000081526004018080602001828103825260138152602001807f556e617574686f72697a656420616374696f6e0000000000000000000000000081525060200191505060405180910390fd5b816005811115612ed157fe5b6006600086815260200190815260200160002060090160009054906101000a900460ff166005811115612f0057fe5b14612f73576040517f08c379a000000000000000000000000000000000000000000000000000000000815260040180806020018281038252600d8152602001807f496e76616c69642053746167650000000000000000000000000000000000000081525060200191505060405180910390fd5b806006600086815260200190815260200160002060090160006101000a81548160ff02191690836005811115612fa557fe5b0217905550837fdf37221aaffab5daec18329c74e9de71f26727289dfefd6e144987965be79ef38260405180826005811115612fdd57fe5b60ff16815260200191505060405180910390a250505050565b828054600181600116156101000203166002900490600052602060002090601f016020900481019282601f1061303757805160ff1916838001178555613065565b82800160010185558215613065579182015b82811115613064578251825591602001919060010190613049565b5b5090506130729190613076565b5090565b61309891905b8082111561309457600081600090555060010161307c565b5090565b9056fe4f6e6c7920636f6e7472616374206f776e65722063616e20706572666f726d207468697320616374696f6e416c6c20737570706c7920636861696e20726f6c6573206d7573742062652072656769737465726564a265627a7a7231582021228924a518a10bfa8194babdd638b13b419d6d263a96b50b02f6ce06b48a7e64736f6c63430005100032",
  "source": "// SPDX-License-Identifier: MIT\r\npragma solidity >=0.4.22 <0.9.0;\r\n\r\ncontract SupplyChain {\r\n    address public Owner;\r\n\r\n    constructor() public {\r\n        Owner = msg.sender;\r\n    }\r\n\r\n    modifier onlyByOwner() {\r\n        require(msg.sender == Owner, \"Only contract owner can perform this action\");\r\n        _;\r\n    }\r\n\r\n    enum STAGE { Init, RawMaterialSupply, Manufacture, Distribution, Retail, Sold }\r\n\r\n    uint256 public medicineCtr;\r\n    uint256 public rmsCtr;\r\n    uint256 public manCtr;\r\n    uint256 public disCtr;\r\n    uint256 public retCtr;\r\n\r\n    struct Medicine {\r\n        uint256 id;\r\n        string name;\r\n        string description;\r\n        string compositions;\r\n        uint256 quantity;\r\n        uint256 RMSid;\r\n        uint256 MANid;\r\n        uint256 DISid;\r\n        uint256 RETid;\r\n        STAGE stage;\r\n    }\r\n\r\n    mapping(uint256 => Medicine) public MedicineStock;\r\n\r\n    struct Supplier {\r\n        address addr;\r\n        uint256 id;\r\n        string name;\r\n        string place;\r\n    }\r\n\r\n    mapping(uint256 => Supplier) public RMS;\r\n    mapping(uint256 => Supplier) public MAN;\r\n    mapping(uint256 => Supplier) public DIS;\r\n    mapping(uint256 => Supplier) public RET;\r\n\r\n    mapping(address => uint256) public RMSMap;\r\n    mapping(address => uint256) public MANMap;\r\n    mapping(address => uint256) public DISMap;\r\n    mapping(address => uint256) public RETMap;\r\n\r\n    event MedicineAdded(uint256 indexed id, string name, uint256 quantity);\r\n    event StageChanged(uint256 indexed medicineID, STAGE stage);\r\n    event SupplierAdded(string role, uint256 indexed id, address addr, string name);\r\n\r\n    function showStage(uint256 _medicineID) public view returns (string memory) {\r\n        require(_medicineID > 0 && _medicineID <= medicineCtr, \"Invalid medicine ID\");\r\n        STAGE stage = MedicineStock[_medicineID].stage;\r\n        if (stage == STAGE.Init) return \"Medicine Ordered\";\r\n        if (stage == STAGE.RawMaterialSupply) return \"Raw Material Supplied\";\r\n        if (stage == STAGE.Manufacture) return \"Manufacturing\";\r\n        if (stage == STAGE.Distribution) return \"Distribution\";\r\n        if (stage == STAGE.Retail) return \"Retail\";\r\n        if (stage == STAGE.Sold) return \"Medicine Sold\";\r\n        return \"Unknown Stage\";\r\n    }\r\n\r\n    function addSupplier(string memory role, mapping(uint256 => Supplier) storage supplierMap, mapping(address => uint256) storage supplierAddressMap, uint256 counter, address _address, string memory _name, string memory _place) private {\r\n        counter++;\r\n        supplierMap[counter] = Supplier(_address, counter, _name, _place);\r\n        supplierAddressMap[_address] = counter;\r\n        emit SupplierAdded(role, counter, _address, _name);\r\n    }\r\n\r\n    function addRMS(address _address, string memory _name, string memory _place) public onlyByOwner {\r\n        addSupplier(\"RMS\", RMS, RMSMap, rmsCtr, _address, _name, _place);\r\n        rmsCtr++;\r\n    }\r\n\r\n    function addManufacturer(address _address, string memory _name, string memory _place) public onlyByOwner {\r\n        addSupplier(\"Manufacturer\", MAN, MANMap, manCtr, _address, _name, _place);\r\n        manCtr++;\r\n    }\r\n\r\n    function addDistributor(address _address, string memory _name, string memory _place) public onlyByOwner {\r\n        addSupplier(\"Distributor\", DIS, DISMap, disCtr, _address, _name, _place);\r\n        disCtr++;\r\n    }\r\n\r\n    function addRetailer(address _address, string memory _name, string memory _place) public onlyByOwner {\r\n        addSupplier(\"Retailer\", RET, RETMap, retCtr, _address, _name, _place);\r\n        retCtr++;\r\n    }\r\n\r\n    function updateStage(uint256 _medicineID, mapping(address => uint256) storage supplierMap, STAGE currentStage, STAGE nextStage) private {\r\n        require(_medicineID > 0 && _medicineID <= medicineCtr, \"Invalid medicine ID\");\r\n        require(supplierMap[msg.sender] > 0, \"Unauthorized action\");\r\n        require(MedicineStock[_medicineID].stage == currentStage, \"Invalid Stage\");\r\n        MedicineStock[_medicineID].stage = nextStage;\r\n        emit StageChanged(_medicineID, nextStage);\r\n    }\r\n\r\n    function RMSsupply(uint256 _medicineID) public {\r\n        updateStage(_medicineID, RMSMap, STAGE.Init, STAGE.RawMaterialSupply);\r\n        MedicineStock[_medicineID].RMSid = RMSMap[msg.sender];\r\n    }\r\n\r\n    function Manufacturing(uint256 _medicineID) public {\r\n        updateStage(_medicineID, MANMap, STAGE.RawMaterialSupply, STAGE.Manufacture);\r\n        MedicineStock[_medicineID].MANid = MANMap[msg.sender];\r\n    }\r\n\r\n    function Distribute(uint256 _medicineID) public {\r\n        updateStage(_medicineID, DISMap, STAGE.Manufacture, STAGE.Distribution);\r\n        MedicineStock[_medicineID].DISid = DISMap[msg.sender];\r\n    }\r\n\r\n    function Retail(uint256 _medicineID) public {\r\n        updateStage(_medicineID, RETMap, STAGE.Distribution, STAGE.Retail);\r\n        MedicineStock[_medicineID].RETid = RETMap[msg.sender];\r\n    }\r\n\r\n    function sold(uint256 _medicineID) public onlyByOwner {\r\n        require(_medicineID > 0 && _medicineID <= medicineCtr, \"Invalid medicine ID\");\r\n        require(MedicineStock[_medicineID].stage == STAGE.Retail, \"Invalid Stage\");\r\n        MedicineStock[_medicineID].stage = STAGE.Sold;\r\n        emit StageChanged(_medicineID, STAGE.Sold);\r\n    }\r\n\r\n    function addMedicine(string memory _name, string memory _description, string memory _composition, uint256 _quantity) public onlyByOwner {\r\n        require(rmsCtr > 0 && manCtr > 0 && disCtr > 0 && retCtr > 0, \"All supply chain roles must be registered\");\r\n        medicineCtr++;\r\n        MedicineStock[medicineCtr] = Medicine(medicineCtr, _name, _description, _composition, _quantity, 0, 0, 0, 0, STAGE.Init);\r\n        emit MedicineAdded(medicineCtr, _name, _quantity);\r\n    }\r\n}\r\n",
  "sourcePath": "C:\\Users\\Admin\\Desktop\\Nisum-Pharmaceuticals\\contracts\\SupplyChain.sol",
  "compiler": {
    "name": "solc",
    "version": "0.5.16+commit.9c3226ce.Emscripten.clang"
  },
  "schemaVersion": "3.4.16",
  "updatedAt": "2025-03-21T09:24:51.658Z",
  "networkType": "ethereum",
  "devdoc": {
    "methods": {}
  },
  "userdoc": {
    "methods": {}
  }
}